{
  "contractName": "BankManagement",
  "abi": [
    {
      "constant": true,
      "inputs": [],
      "name": "userCount",
      "outputs": [
        {
          "name": "",
          "type": "uint256"
        }
      ],
      "payable": false,
      "stateMutability": "view",
      "type": "function",
      "signature": "0x07973ccf"
    },
    {
      "constant": true,
      "inputs": [
        {
          "name": "",
          "type": "uint256"
        }
      ],
      "name": "users",
      "outputs": [
        {
          "name": "id",
          "type": "uint256"
        },
        {
          "name": "accountNo",
          "type": "string"
        },
        {
          "name": "Name",
          "type": "string"
        }
      ],
      "payable": false,
      "stateMutability": "view",
      "type": "function",
      "signature": "0x365b98b2"
    },
    {
      "anonymous": false,
      "inputs": [
        {
          "indexed": false,
          "name": "id",
          "type": "uint256"
        },
        {
          "indexed": false,
          "name": "accountNo",
          "type": "string"
        },
        {
          "indexed": false,
          "name": "Name",
          "type": "string"
        }
      ],
      "name": "userCreated",
      "type": "event",
      "signature": "0x35c4e28c7d56c77b433ffdbe26983657532998d746e2538b49a79af609dd43f4"
    },
    {
      "constant": false,
      "inputs": [
        {
          "name": "_accountNo",
          "type": "string"
        },
        {
          "name": "_Name",
          "type": "string"
        }
      ],
      "name": "createUser",
      "outputs": [],
      "payable": false,
      "stateMutability": "nonpayable",
      "type": "function",
      "signature": "0x87b162b5"
    }
  ],
  "bytecode": "0x60806040526000805534801561001457600080fd5b5061064d806100246000396000f3fe6080604052600436106100565763ffffffff7c010000000000000000000000000000000000000000000000000000000060003504166307973ccf811461005b578063365b98b21461008257806387b162b514610191575b600080fd5b34801561006757600080fd5b506100706102cd565b60408051918252519081900360200190f35b34801561008e57600080fd5b506100ac600480360360208110156100a557600080fd5b50356102d3565b604051808481526020018060200180602001838103835285818151815260200191508051906020019080838360005b838110156100f35781810151838201526020016100db565b50505050905090810190601f1680156101205780820380516001836020036101000a031916815260200191505b50838103825284518152845160209182019186019080838360005b8381101561015357818101518382015260200161013b565b50505050905090810190601f1680156101805780820380516001836020036101000a031916815260200191505b509550505050505060405180910390f35b34801561019d57600080fd5b506102cb600480360360408110156101b457600080fd5b8101906020810181356401000000008111156101cf57600080fd5b8201836020820111156101e157600080fd5b8035906020019184600183028401116401000000008311171561020357600080fd5b91908080601f016020809104026020016040519081016040528093929190818152602001838380828437600092019190915250929594936020810193503591505064010000000081111561025657600080fd5b82018360208201111561026857600080fd5b8035906020019184600183028401116401000000008311171561028a57600080fd5b91908080601f01602080910402602001604051908101604052809392919081815260200183838082843760009201919091525092955061040b945050505050565b005b60005481565b600160208181526000928352604092839020805481840180548651600296821615610100026000190190911695909504601f8101859004850286018501909652858552909491939290919083018282801561036f5780601f106103445761010080835404028352916020019161036f565b820191906000526020600020905b81548152906001019060200180831161035257829003601f168201915b50505060028085018054604080516020601f60001961010060018716150201909416959095049283018590048502810185019091528181529596959450909250908301828280156104015780601f106103d657610100808354040283529160200191610401565b820191906000526020600020905b8154815290600101906020018083116103e457829003601f168201915b5050505050905083565b600080546001908101808355604080516060810182528281526020808201888152828401889052938652848152919094208451815591518051929361045893908501929190910190610586565b5060408201518051610474916002840191602090910190610586565b509050507f35c4e28c7d56c77b433ffdbe26983657532998d746e2538b49a79af609dd43f46000548383604051808481526020018060200180602001838103835285818151815260200191508051906020019080838360005b838110156104e55781810151838201526020016104cd565b50505050905090810190601f1680156105125780820380516001836020036101000a031916815260200191505b50838103825284518152845160209182019186019080838360005b8381101561054557818101518382015260200161052d565b50505050905090810190601f1680156105725780820380516001836020036101000a031916815260200191505b509550505050505060405180910390a15050565b828054600181600116156101000203166002900490600052602060002090601f016020900481019282601f106105c757805160ff19168380011785556105f4565b828001600101855582156105f4579182015b828111156105f45782518255916020019190600101906105d9565b50610600929150610604565b5090565b61061e91905b80821115610600576000815560010161060a565b9056fea165627a7a723058200404c4a7ba22955a55ef672cdf7d43b8f3b0117d8ad662ff9aea38c908dcf7550029",
  "source": "pragma solidity ^0.5.0;\r\n\r\ncontract BankManagement {\r\n  uint public userCount = 0;\r\n\r\n  struct User {\r\n    uint id;\r\n    string accountNo;\r\n    string Name;\r\n  }\r\n  \r\n\r\n  mapping(uint => User) public users;\r\n\r\n  event userCreated(\r\n    uint id,\r\n    string accountNo,\r\n    string Name\r\n  );\r\n\r\n\r\n  function createUser(string memory _accountNo,string memory _Name) public {\r\n    userCount ++;\r\n    users[userCount] = User(userCount, _accountNo, _Name);\r\n    emit userCreated(userCount, _accountNo, _Name);\r\n  }\r\n\r\n}\r\n",
  "sourcePath": "K:/engineering/3rd year/DBMS miniproject/DBMS-MiniProject/contracts/BankManagement.sol",
  "compiler": {
    "name": "solc",
    "version": "0.5.0+commit.1d4f565a.Emscripten.clang"
  },
  "schemaVersion": "3.0.1",
  "updatedAt": "2022-01-13T08:13:46.698Z",
  "devdoc": {
    "methods": {}
  },
  "userdoc": {
    "methods": {}
  }
}