{
  "contractName": "BankManagement",
  "abi": [
    {
      "constant": true,
      "inputs": [],
      "name": "userCount",
      "outputs": [
        {
          "name": "",
          "type": "uint256"
        }
      ],
      "payable": false,
      "stateMutability": "view",
      "type": "function"
    },
    {
      "constant": true,
      "inputs": [
        {
          "name": "",
          "type": "uint256"
        }
      ],
      "name": "users",
      "outputs": [
        {
          "name": "id",
          "type": "uint256"
        },
        {
          "name": "accountNo",
          "type": "uint256"
        },
        {
          "name": "IFSC",
          "type": "string"
        },
        {
          "name": "branchName",
          "type": "string"
        },
        {
          "name": "Name",
          "type": "string"
        },
        {
          "name": "addres",
          "type": "string"
        },
        {
          "name": "birthdate",
          "type": "string"
        },
        {
          "name": "balance",
          "type": "uint256"
        },
        {
          "name": "mobileNo",
          "type": "uint256"
        }
      ],
      "payable": false,
      "stateMutability": "view",
      "type": "function"
    },
    {
      "anonymous": false,
      "inputs": [
        {
          "indexed": false,
          "name": "id",
          "type": "uint256"
        },
        {
          "indexed": false,
          "name": "accountNo",
          "type": "uint256"
        },
        {
          "indexed": false,
          "name": "IFSC",
          "type": "string"
        },
        {
          "indexed": false,
          "name": "branchName",
          "type": "string"
        },
        {
          "indexed": false,
          "name": "Name",
          "type": "string"
        },
        {
          "indexed": false,
          "name": "addres",
          "type": "string"
        },
        {
          "indexed": false,
          "name": "birthdate",
          "type": "string"
        },
        {
          "indexed": false,
          "name": "balance",
          "type": "uint256"
        },
        {
          "indexed": false,
          "name": "mobileNo",
          "type": "uint256"
        }
      ],
      "name": "userCreated",
      "type": "event"
    },
    {
      "constant": false,
      "inputs": [
        {
          "name": "_accountNo",
          "type": "uint256"
        },
        {
          "name": "_IFSC",
          "type": "string"
        },
        {
          "name": "_branchName",
          "type": "string"
        },
        {
          "name": "_Name",
          "type": "string"
        },
        {
          "name": "_addres",
          "type": "string"
        },
        {
          "name": "_birthdate",
          "type": "string"
        },
        {
          "name": "_balance",
          "type": "uint256"
        },
        {
          "name": "_mobileNo",
          "type": "uint256"
        }
      ],
      "name": "createUser",
      "outputs": [],
      "payable": false,
      "stateMutability": "nonpayable",
      "type": "function"
    }
  ],
  "bytecode": "0x60806040526000805534801561001457600080fd5b50610cfd806100246000396000f3fe6080604052600436106100565763ffffffff7c010000000000000000000000000000000000000000000000000000000060003504166307973ccf811461005b578063365b98b214610082578063417756e2146102d8575b600080fd5b34801561006757600080fd5b506100706105b6565b60408051918252519081900360200190f35b34801561008e57600080fd5b506100ac600480360360208110156100a557600080fd5b50356105bc565b604051808a8152602001898152602001806020018060200180602001806020018060200188815260200187815260200186810386528d818151815260200191508051906020019080838360005b838110156101115781810151838201526020016100f9565b50505050905090810190601f16801561013e5780820380516001836020036101000a031916815260200191505b5086810385528c5181528c516020918201918e019080838360005b83811015610171578181015183820152602001610159565b50505050905090810190601f16801561019e5780820380516001836020036101000a031916815260200191505b5086810384528b5181528b516020918201918d019080838360005b838110156101d15781810151838201526020016101b9565b50505050905090810190601f1680156101fe5780820380516001836020036101000a031916815260200191505b5086810383528a5181528a516020918201918c019080838360005b83811015610231578181015183820152602001610219565b50505050905090810190601f16801561025e5780820380516001836020036101000a031916815260200191505b5086810382528951815289516020918201918b019080838360005b83811015610291578181015183820152602001610279565b50505050905090810190601f1680156102be5780820380516001836020036101000a031916815260200191505b509e50505050505050505050505050505060405180910390f35b3480156102e457600080fd5b506105b460048036036101008110156102fc57600080fd5b8135919081019060408101602082013564010000000081111561031e57600080fd5b82018360208201111561033057600080fd5b8035906020019184600183028401116401000000008311171561035257600080fd5b91908080601f01602080910402602001604051908101604052809392919081815260200183838082843760009201919091525092959493602081019350359150506401000000008111156103a557600080fd5b8201836020820111156103b757600080fd5b803590602001918460018302840111640100000000831117156103d957600080fd5b91908080601f016020809104026020016040519081016040528093929190818152602001838380828437600092019190915250929594936020810193503591505064010000000081111561042c57600080fd5b82018360208201111561043e57600080fd5b8035906020019184600183028401116401000000008311171561046057600080fd5b91908080601f01602080910402602001604051908101604052809392919081815260200183838082843760009201919091525092959493602081019350359150506401000000008111156104b357600080fd5b8201836020820111156104c557600080fd5b803590602001918460018302840111640100000000831117156104e757600080fd5b91908080601f016020809104026020016040519081016040528093929190818152602001838380828437600092019190915250929594936020810193503591505064010000000081111561053a57600080fd5b82018360208201111561054c57600080fd5b8035906020019184600183028401116401000000008311171561056e57600080fd5b91908080601f01602080910402602001604051908101604052809392919081815260200183838082843760009201919091525092955050823593505050602001356108ca565b005b60005481565b6001602052806000526040600020600091509050806000015490806001015490806002018054600181600116156101000203166002900480601f0160208091040260200160405190810160405280929190818152602001828054600181600116156101000203166002900480156106745780601f1061064957610100808354040283529160200191610674565b820191906000526020600020905b81548152906001019060200180831161065757829003601f168201915b5050505060038301805460408051602060026001851615610100026000190190941693909304601f81018490048402820184019092528181529495949350908301828280156107045780601f106106d957610100808354040283529160200191610704565b820191906000526020600020905b8154815290600101906020018083116106e757829003601f168201915b5050505060048301805460408051602060026001851615610100026000190190941693909304601f81018490048402820184019092528181529495949350908301828280156107945780601f1061076957610100808354040283529160200191610794565b820191906000526020600020905b81548152906001019060200180831161077757829003601f168201915b5050505060058301805460408051602060026001851615610100026000190190941693909304601f81018490048402820184019092528181529495949350908301828280156108245780601f106107f957610100808354040283529160200191610824565b820191906000526020600020905b81548152906001019060200180831161080757829003601f168201915b5050505060068301805460408051602060026001851615610100026000190190941693909304601f81018490048402820184019092528181529495949350908301828280156108b45780601f10610889576101008083540402835291602001916108b4565b820191906000526020600020905b81548152906001019060200180831161089757829003601f168201915b5050505050908060070154908060080154905089565b600080546001908101808355604080516101208101825282815260208082018e81528284018e8152606084018e9052608084018d905260a084018c905260c084018b905260e084018a905261010084018990529487528582529290952081518155915193820193909355905180519293919261094c9260028501920190610c36565b5060608201518051610968916003840191602090910190610c36565b5060808201518051610984916004840191602090910190610c36565b5060a082015180516109a0916005840191602090910190610c36565b5060c082015180516109bc916006840191602090910190610c36565b5060e0820151816007015561010082015181600801559050507f5ec269ec90c8e917debd7394cfd3512e5da3dbe3877add95defeb265e24b7bdf6000548989898989898989604051808a8152602001898152602001806020018060200180602001806020018060200188815260200187815260200186810386528d818151815260200191508051906020019080838360005b83811015610a66578181015183820152602001610a4e565b50505050905090810190601f168015610a935780820380516001836020036101000a031916815260200191505b5086810385528c5181528c516020918201918e019080838360005b83811015610ac6578181015183820152602001610aae565b50505050905090810190601f168015610af35780820380516001836020036101000a031916815260200191505b5086810384528b5181528b516020918201918d019080838360005b83811015610b26578181015183820152602001610b0e565b50505050905090810190601f168015610b535780820380516001836020036101000a031916815260200191505b5086810383528a5181528a516020918201918c019080838360005b83811015610b86578181015183820152602001610b6e565b50505050905090810190601f168015610bb35780820380516001836020036101000a031916815260200191505b5086810382528951815289516020918201918b019080838360005b83811015610be6578181015183820152602001610bce565b50505050905090810190601f168015610c135780820380516001836020036101000a031916815260200191505b509e50505050505050505050505050505060405180910390a15050505050505050565b828054600181600116156101000203166002900490600052602060002090601f016020900481019282601f10610c7757805160ff1916838001178555610ca4565b82800160010185558215610ca4579182015b82811115610ca4578251825591602001919060010190610c89565b50610cb0929150610cb4565b5090565b610cce91905b80821115610cb05760008155600101610cba565b9056fea165627a7a7230582087674e0a907ec0c2eb451f0705260875ff200d7654425c95875c4b82b965782d0029",
  "source": "pragma solidity ^0.5.0;\r\n\r\ncontract BankManagement {\r\n  uint public userCount = 0;\r\n\r\n  struct User {\r\n    uint id;\r\n    uint accountNo;\r\n    string IFSC;\r\n    string branchName;\r\n    string Name;\r\n    string addres;\r\n    string birthdate;\r\n    uint balance;\r\n    uint mobileNo;\r\n  }\r\n  \r\n\r\n  mapping(uint => User) public users;\r\n\r\n  event userCreated(\r\n    uint id,\r\n    uint accountNo,\r\n    string IFSC,\r\n    string branchName,\r\n    string Name,\r\n    string addres,\r\n    string birthdate,\r\n    uint balance,\r\n    uint mobileNo\r\n  );\r\n\r\n  function createUser(uint _accountNo,string memory _IFSC,string memory _branchName,string memory _Name,string memory _addres,string memory _birthdate,uint _balance,uint _mobileNo) public {\r\n    userCount ++;\r\n    users[userCount] = User(userCount, _accountNo,_IFSC,_branchName, _Name,_addres,_birthdate,_balance,_mobileNo);\r\n    emit userCreated(userCount, _accountNo, _IFSC,_branchName,_Name,_addres,_birthdate,_balance,_mobileNo);\r\n  }\r\n\r\n}\r\n",
  "sourcePath": "D:/DBMS-mini/DBMS-MiniProject/contracts/BankManagement.sol",
  "compiler": {
    "name": "solc",
    "version": "0.5.0+commit.1d4f565a.Emscripten.clang"
  },
  "schemaVersion": "3.0.1",
  "updatedAt": "2022-02-02T16:27:41.503Z",
  "devdoc": {
    "methods": {}
  },
  "userdoc": {
    "methods": {}
  }
}